:100000000C944C000C9469000C9469000C946900E9
:100010000C9469000C9469000C9469000C946900BC
:100020000C9469000C9469000C9469000C946900AC
:100030000C9469000C9469000C9469000C9469009C
:100040000C9469000C9469000C9469000C9469008C
:100050000C9469000C9469000C9469000C9469007C
:100060000C9469000C9469000C9469000C9469006C
:100070000C9469000C9469000C9469000C9469005C
:100080000C9469000C9469000C9469000C9469004C
:100090000C9469000C94690011241FBECFEFD4E0CA
:1000A000DEBFCDBF13E0A0E0B1E0ECE9F9E102C0B2
:1000B00005900D92AE3CB107D9F714E0AEECB3E079
:1000C00001C01D92A530B107E1F70E94C0000C9459
:1000D000CC0C0C940000882359F41092E103109288
:1000E000E00381E090E09093D5038093D4030AC0AD
:1000F0001092D5031092D40381E090E09093E10335
:100100008093E00381E090E09093E7038093E6031F
:100110009093E5038093E4031092D8031092D703E1
:1001200008951092D3031092D2038091DC03909132
:10013000DD03892B81F48091E8039091E903892BF9
:1001400051F0809158038093DA0381E090E090931E
:10015000DD038093DC0308958CE291E00E94DB07CD
:1001600086E791E00E945B0789E10E944C0781E0ED
:1001700090E00E94510780E091E00E94C40708953A
:100180000F931F93DF93CF93CDB7DEB7E0970FB6F2
:10019000F894DEBF0FBECDBF8E010F5F1F4F80E30F
:1001A000F80111928A95E9F784ED91E09A838983A9
:1001B00088E690E09E838D8384EB91E09A8789871F
:1001C0002DE033E03E872D878DE891E09A8B898B77
:1001D0003E8B2D8B89E493E09A8F898F3E8F2D8FF4
:1001E00083E891E09AA389A33EA32DA389E191E03E
:1001F0009AA789A783E090E09EA78DA70E94CB09CC
:100200000E94420C0E94E1030E9475030E94AC0010
:10021000C80166E00E94E10A80E090E0E0960FB637
:10022000F894DEBF0FBECDBFCF91DF911F910F912C
:1002300008958091CE038F5F8093CE0380E060E0CD
:100240000E94C309089580E0609157030E94C3098A
:1002500090E080915703882309F491E0909357032D
:1002600008951F93182F8A3221F0833211F08E33B4
:1002700051F40E94230181E090E09093DF0380938A
:10028000DE031093DB031F9108950E94E1030E9497
:1002900075030E94AC0081E090E09093E3038093AB
:1002A000E2031092E1031092E0031092DF03109238
:1002B000DE031092E9031092E8031092DD0310921E
:1002C000DC031092E7031092E6031092D103109220
:1002D000D0031092D5031092D4031092D30310923E
:1002E000D2031092D90388E5809358038093DB03EF
:1002F0008093DA0380E060E00E94C3091092E50376
:100300001092E40308950E94350C80E00E94F90BDE
:10031000882311F00E94450108958091D9038C3300
:1003200010F58091CF038F5F8093CF038091DC0322
:100330009091DD03892BB9F08091E8039091E90356
:10034000892B89F08091DA030E94AE038091D90352
:100350008F5F8093D90381E090E09093D1038093E5
:10036000D0030E94230108950E94B403882321F042
:100370000E94AB030E94310108951F93182F81E062
:1003800090E00E945107112319F484E191E002C02A
:1003900084E291E00E94C4070E9488081092E5035D
:1003A0001092E4031F9108950E9488088091D80359
:1003B000823048F08091E4039091E503892B19F491
:1003C00080E00E946B008091D703823048F08091DA
:1003D000E4039091E503892B19F481E00E946B00FE
:1003E0008091E2039091E303892B09F040C0809152
:1003F000E6039091E703892BD1F58091DE0390917C
:10040000DF03892BA1F18091D0039091D103892B37
:1004100071F18091D2039091D303892B41F58091A2
:10042000E4039091E503892B11F581E090E00E94AF
:1004300051078AED93E06BED73E040EE53E024ED5D
:1004400033E00E94210B80EE93E064ED73E047ED12
:1004500053E028ED33E00E945A0B0E94C4070E942B
:10046000880881E090E09093E7038093E603809111
:10047000E2039091E303892B81F08091DE03909158
:10048000DF03892B31F08091D0039091D103892B28
:1004900021F41092E3031092E2038091D003909133
:1004A000D103892BD1F08091DE039091DF03892B5A
:1004B000A1F48091EA039091EB03892B71F481E020
:1004C00090E00E94510782E491E00E94C40781E01D
:1004D00090E09093EB038093EA038091E403909182
:1004E000E503892B91F08091E0039091E103892B42
:1004F00019F081E00E94BD018091D4039091D50351
:10050000892B19F080E00E94BD0108951092EB0341
:100510001092EA031092D3031092D2038091DC036D
:100520009091DD03892BA9F480E090E00E945107AF
:1005300086ED93E068E573E00E94820B8091D6031C
:100540008F5F8093D60381E090E09093E9038093DE
:10055000E80308951092EB031092EA031092D3037C
:100560001092D2038091DC039091DD03892BA9F4D2
:1005700080E090E00E94510786ED93E068E573E02B
:100580000E94820B8091D6038F5F8093D60381E017
:1005900090E09093E9038093E80308951F93DF931D
:1005A000CF93CDB7DEB7A4970FB6F894DEBF0FBEDA
:1005B000CDBF162F823008F080E0BE016F5F7F4F05
:1005C00040E00E94D90B81E090E00E945107112386
:1005D000C1F4DE015396E6E5F1E082E101900D926F
:1005E0008150E1F7FE017396DF010D900020E9F7DD
:1005F0001197AE1BBF0BAC0FBD1F898152968C9318
:1006000017C0DE011596E8E6F1E08EE001900D924C
:100610008150E1F7FE013596DF010D900020E9F7EA
:100620001197AE1BBF0BAC0FBD1F898114968C9325
:10063000CF010E94C4071092E7031092E603A4962C
:100640000FB6F894DEBF0FBECDBFCF91DF911F91E3
:1006500008958091D70361E00E94CE021092E903D1
:100660001092E80381E090E09093D3038093D2034B
:1006700008958091D80360E00E94CE021092E903B1
:100680001092E80381E090E09093D3038093D2032B
:1006900008958091D603833010F01092D6030E9403
:1006A0005F0683E00E942106882311F00E94AA02BF
:1006B00081E00E942106882311F00E94860282E0D8
:1006C0000E942106882311F00E94390380E00E94D5
:1006D0002106882311F00E94290384E00E9421064C
:1006E000882311F00E9491000895DF93CF9300D0EA
:1006F0000F92CDB7DEB7DE011196E9E5F3E083E0B6
:1007000001900D928150E1F7509A589A0E9460042E
:100710008FE690E00E946A0481E090E00E944D0420
:1007200081E090E061E070E00E9437040E942004C4
:10073000CE0101960E94A0040F900F900F90CF91D0
:10074000DF9108950E94E20408950E94C90408956B
:100750000E94BF0408950E94DB0408950E94D30400
:100760000E94DB0481E008950E94B9040895CF93AC
:10077000DF93EC01D901FB0190E020E030E061E083
:1007800070E018C081919B01082E02C0220F331F18
:100790000A94E2F72F5F3F4F369527952C0F3D1FA8
:1007A00002C0369527958A95E2F72F3F310521F053
:1007B00018F09F5F941730F32C93892FDF91CF911E
:1007C0000895E1E6F0E080E880831082A89584B780
:1007D000877F84BFE0E6F0E08081886180831082BB
:1007E00008951092800084E080938100109285002B
:1007F0001092840008952091840030918500C901F1
:100800000895AC012091840030918500C901841BBA
:10081000950B885E9340B0F7C9010895409184001C
:1008200050918500480F591F209184003091850018
:10083000C901841B950B885E9340B0F7C9010895E8
:1008400085B3897F85BB95B580915C038770987F60
:10085000892B85BD089585B5887F85BD089585B3AD
:1008600090E0969587959695879581700895009765
:1008700019F0019789F409C084B56295660F660F77
:10088000607C8F73862B84BD089584B563706295F8
:10089000607F8F7C862B84BD0895009721F001979F
:1008A00039F080E0089584B58C7F84BD81E008959F
:1008B00084B58E7F84BD84B5826084BD81E0089557
:1008C00014BC15BC16BC18BC81E090E00E944D041D
:1008D00081E00895DF93CF930F92CDB7DEB76DE53A
:1008E00073E045E09E012F5F3F4F0E94B703E82F62
:1008F000982F9F5F90935C032981215027BD2F5F24
:1009000018BC85B5877029F085B59770887F982BBE
:1009100095BD30E0F0E0E35AFC4F008002C0220FAA
:10092000331F0A94E2F7C9010F90CF91DF91089528
:1009300001979093CD00019681508093CC0008954B
:10094000FC018081918101979093CD0001968150A7
:100950008093CC009281892F8550843008F098E0F4
:1009600088E18093C9009550990F9093CA0081E067
:1009700008958091C800881F8827881F0895809156
:10098000C80090E025E0969587952A95E1F781705B
:1009900008958091C80090E036E0969587953A9545
:1009A000E1F781700895982F8091C80085FFFCCFF2
:1009B0009093CE0008958091C80087FFFCCF80916E
:1009C000CE000895FC0107C08091C80085FFFCCFD0
:1009D00031969093CE0090819923B1F70895E82F36
:1009E0008530C0F46730B0F481E090E002C0880F39
:1009F000991F6A95E2F7982FAE2FB0E0282F209527
:100A0000FD01E351FC4F808128234111292BA35183
:100A1000BC4F2C930895E82F853088F4673078F424
:100A200081E090E002C0880F991F6A95E2F7F0E03C
:100A3000E351FC4FE081E82319F0E1E001C0E0E080
:100A40008E2F08951092ED031092EE031092EF0393
:100A50001092F0031092F10308950E948B051092FA
:100A6000ED031092EE031092EF031092F003109238
:100A7000F10308956091EC03E62FF0E0E351FC4FA1
:100A800080810E94A8058091EC038F5F8093EC0326
:100A9000853010F01092EC0308959C0162307105CE
:100AA00071F16330710520F46130710539F41BC0B8
:100AB0006330710529F06430710569F080E00895B4
:100AC000FC01F07084A1932F832B84A385A19095C2
:100AD000982395A312C0FC01F07084A1832B84A3FA
:100AE00085A1832B09C0FC01F07084A1932F909500
:100AF000892384A385A1892385A381E00895FC012E
:100B0000F07084A1932F9095892384A385A1832BD2
:100B100085A381E00895CF93DF93CCE6D3E089915C
:100B2000999164E070E00E944D0583E0CA37D807D0
:100B3000B1F7C2E6D3E08991999164E070E00E9438
:100B40004D0583E0CC36D807B1F7DF91CF910895FA
:100B5000482FE091F203F0E0EE0FFF1FEE59FC4F3B
:100B600020813181F901F07085A1832B85A3ACE64A
:100B7000B3E02D913C91119740FF07C0F901F0704F
:100B800095A1832F8095892304C0F901F07085A178
:100B9000832B85A3129683E0AA37B80711F04695F8
:100BA000E8CFE62FF0E0EE0FFF1FEE59FC4F8081FB
:100BB0009181FC01F07025A1892F8095822385A366
:100BC0006093F20308959C016230710571F1633006
:100BD000710520F46130710539F41BC06330710573
:100BE00029F06430710569F080E00895FC01F0702F
:100BF00084A1932F832B84A385A19095982395A3FB
:100C000012C0FC01F07084A1832B84A385A1832BE7
:100C100009C0FC01F07084A1932F9095892384A3CF
:100C200085A1892385A381E00895FC01F07084A14A
:100C3000932F9095892384A385A1832B85A381E09D
:100C40000895E82FF0E0EE0FFF1FED50FC4F80817C
:100C5000882319F480E090E0089590E0818181116B
:100C600091E081E09827892F0895E82FF0E0EE0FBA
:100C7000FF1FED50FC4F8081882319F080E090E049
:100C8000089590E08181882309F491E081E098271C
:100C9000892F0895E82FF0E0EE0FFF1FED50FC4F75
:100CA0008081089590E0E82FF0E0EE0FFF1FED50F7
:100CB000FC4F8081882309F491E0892F08956F9279
:100CC0007F928F929F92AF92BF92CF92DF92EF92DC
:100CD000FF920F931F93CF93DF93C3EFD3E07AE795
:100CE000A72E73E0B72E66E0662E77247394888172
:100CF0008983F501E080F1805FEFC52ED12CCE20F5
:100D0000DF20F60184A18F2C992425A12821882198
:100D100041F0222319F403E010E00AC004E010E0DF
:100D200007C0222319F401E010E002C002E010E045
:100D3000C70164E070E00E94E305C70162E070E073
:100D40000E94E305862D8A95F1F7F60183A11882AA
:100D500090E088219921892B09F47882C701B80194
:100D60000E94E305229682E090E0A80EB91E93E06F
:100D7000CD3FD90709F0BBCFDF91CF911F910F91E4
:100D8000FF90EF90DF90CF90BF90AF909F908F90AB
:100D90007F906F9008950895FC01009711F480E012
:100DA00008958381262F281B27FF03C080E090E051
:100DB000089540E0332727FD3095848190E028177F
:100DC00039070CF041E081E04827842F0895FC01A9
:100DD000009789F13181431770F58281281758F502
:100DE0008381681B67FD27C0A62FBB27A7FDB09591
:100DF000848190E0A817B907F4F4822F632F0E9432
:100E0000450C382F340F6581CD0170E00E944E0CE7
:100E10000696232F269526952695E80FF91FE20FB3
:100E2000F11D808190E0377002C0959587953A95C5
:100E3000E2F78170089580E008958091FD0390911C
:100E4000FE030E9401048091FD039091FE03209116
:100E5000FF0330910004820F931F9093FE03809351
:100E6000FD030895EF92FF920F931F937C010E9460
:100E7000F10300E010E062E17AE780E090E0A80191
:100E800097010E94800C309300042093FF031F9170
:100E90000F91FF90EF90089580938A0310928B0337
:100EA0000895909385038093840308959093870316
:100EB00080938603089590938D0380938C03089507
:100EC0000F931F93182F092F362F272F109290035F
:100ED0004093910310929403E0918C03F0918D0361
:100EE000309709F44EC060918A0370918B03818121
:100EF00090E00E944E0CBC0180918E0390918F0374
:100F00000E946C0CCB016AE070E00E944E0C909342
:100F1000930380939203209389033093880385E998
:100F200093E0612F702F40E250E00E94BD0C809151
:100F3000840390918503019721F5E12FF02FDF01C4
:100F40000D900020E9F71197AE1BBF0BE0918C03C9
:100F5000F0918D03618180918603909187030197C1
:100F600011F025E001C027E070E06F5F7F4F8A2F0E
:100F700090E00E944E0C8150281718F48EEF809359
:100F800094031F910F9108959C0180918603909185
:100F90008703019711F070E001C076E0C90160E0BD
:100FA0004FEF0E94600708950E942205109295035A
:100FB00010929003089590938F0380938E030E9464
:100FC0002D0584E190E090938B0380938A030E9427
:100FD000D4070895462F692F0E94EF040895CF92F9
:100FE000DF92EF92FF920F931F93C82EE62ED72E1B
:100FF0008091860390918703019719F0F62E00E007
:101000004CC0F72E00E016C0CF016C2D402F212FD1
:101010000E94E706482F812F8E0D6F2D0E94EF044E
:101020001F5FE0918C03F0918D038281181760F3AC
:101030000F5FFA94E0918C03F0918D038181081782
:1010400010F010E009C010E0ECCF812F8E0D6F2D55
:1010500040E00E94EF041F5FE0918C03F0918D034C
:101060008281181790F37F2D71506E2D32C0CF0101
:101070006C2D402F212F0E94E706482F612F6D0D08
:101080008F2D0E94EF041F5FE0918C03F0918D0380
:101090008281181760F30F5FF394E0918C03F09155
:1010A0008D038181081710F010E009C010E0ECCF2B
:1010B000612F6D0D8F2D40E00E94EF041F5FE091C6
:1010C0008C03F0918D038281181790F36F2D6F5F61
:1010D0007D2DCB011F910F91FF90EF90DF90CF906E
:1010E00008951F93CF93DF93EC0110E009C00E9495
:1010F000EF07BC011F5F853034F477FD04C02196F3
:1011000088818823A1F7812FDF91CF911F910895C6
:101110001F93809101049091020401969093020420
:1011200080930104209192033091930382179307D7
:1011300008F46DC01092020410920104E091900333
:10114000F0E0EC57FC4F8189882351F41092900312
:1011500080919103882309F45AC0815080939103B0
:1011600010919003412F50E0FA01EC57FC4F818918
:10117000882309F44CC02091840330918503211504
:10118000310521F02130310551F512C080919403D1
:10119000882329F56091880370918903CA018B56D1
:1011A0009C4F0E9471081150180F1093900317C0A4
:1011B00070918903609188038091860390918703E1
:1011C000019721F480919403780F03C080919403D8
:1011D000681B812F90E08B569C4F0E947108809174
:1011E00094038F5F80939403992787FD9095E091F6
:1011F0008C03F0918D03218130E0281739073CF4EE
:1012000010929403809190038F5F809390030E94CB
:101210003A051F9108956F927F928F929F92AF929D
:10122000BF92CF92DF92EF92FF920F931F93CF93D3
:10123000DF93F82FE92FC62EB72EA42E262F3327A3
:1012400027FD3095992787FD9095281B390B472F4F
:10125000552747FD50958E2F992787FD9095481B60
:10126000590B37FF04C066246A94762C03C071E0E2
:10127000672E712C57FF04C088248A94982C03C0D1
:1012800061E0862E912C790137FF04C0F094E1943F
:10129000F108F3948A0157FF03C0109501951F4F81
:1012A000E016F106BCF0E701D595C795BE2EDF2EFE
:1012B0000DC08D2D6B2D4A2D0E94EF04C01BD10B4C
:1012C000D7FF03C0CE0DDF1DB80CD60CDC1489F798
:1012D000CD2C16C0E801D595C795DE2ECF2E0DC0BA
:1012E0008C2D6D2D4A2D0E94EF04CE19DF09D7FFFA
:1012F00003C0C00FD11FC60CD80CDB1489F7BD2C5E
:101300008C2D6B2D4A2D0E94EF04DF91CF911F9100
:101310000F91FF90EF90DF90CF90BF90AF909F9094
:101320008F907F906F900895DF92EF92FF920F93CE
:101330001F938C01F62EE72ED42E712F0E940B09DD
:10134000C801602F7E2D4D2D0E940B098F2D912FEE
:101350006F2D7E2D4D2D0E940B09802F9E2D6F2D00
:101360007E2D4D2D0E940B091F910F91FF90EF9044
:10137000DF900895462F692F0E94EF040895692F8A
:101380000E940B050895882329F4662311F0429AE0
:101390000895429808953A9A429A08959C016230BD
:1013A000710571F16330710520F46130710539F414
:1013B0001BC06330710529F06430710569F080E06D
:1013C0000895FC01F07084A1932F832B84A385A141
:1013D0009095982395A312C0FC01F07084A1832BF3
:1013E00084A385A1832B09C0FC01F07084A1932FF5
:1013F0009095892384A385A1892385A381E00895FD
:10140000FC01F07084A1932F9095892384A385A17A
:10141000832B85A381E00895882321F480E090E068
:1014200037E416C080E090E044E232E209C0589A06
:10143000242F2A95F1F75898232F2A95F1F7019632
:1014400086179707A0F30895232F2A95F1F70196A1
:1014500086179707C8F3089589B186958695809574
:101460008170089586E091E063E070E00E94CE090B
:1014700086E098E063E070E00E94CE0986E094E0A8
:1014800061E070E00E94CE0908950E94320A08953A
:10149000BF92CF92DF92EF92FF920F931F93CF9361
:1014A000DF936C010E942C0A882319F420E030E0BD
:1014B0004FC0C0E0D0E01AE10BC081E0CE30D807C9
:1014C00019F42FEF3FEF44C0812F8A95F1F7219651
:1014D0000E942C0A882389F700E010E0FF24EE2404
:1014E0008AE1B82EC0E0D0E00AC0CA35D10519F4AF
:1014F0002DEF3FEF2DC08B2D8A95F1F721960E949D
:101500002C0A882391F3C0E0D0E00AC08B2D8A9585
:10151000F1F72196C639D10519F4EE24E39404C0FD
:101520000E942C0A882391F7F694CB34D10514F04D
:10153000E0E8FE2A0F5F1F4F0830110599F6F6010B
:10154000F082EE2019F421E030E002C02EEF3FEFF0
:10155000C901DF91CF911F910F91FF90EF90DF9024
:10156000CF90BF9008951F93CF93DF93182F81E002
:1015700064E570E00E940C0A80E065E170E00E9482
:101580000C0AC0E0D0E010FD03C065E170E002C0CD
:101590006AE270E081E00E940C0A80E065E170E0A0
:1015A0000E940C0A2196C830D10511F01695EBCF98
:1015B00080E065E170E00E940C0ADF91CF911F91FD
:1015C0000895FF920F931F93CF93DF938C01F62E14
:1015D0000E94F1030E94FB03C80101C0CF01EC018E
:1015E0008E819F810E940104E881F9818A819B811B
:1015F00009958E819F812C813D81820F931F9F834E
:101600008E830E94FB03DC01F80160E02FEF3FEFC7
:1016100015C086819781AD01481B590BCA015FE750
:101620008F3F9507D8F244275527481B590B42177F
:10163000530710F4EF019A016F5F38966F1580F62B
:10164000E8CFCF93DF93FC01EB01DA01E081EA32CE
:1016500021F488818E33E1F411C0EE3321F46881E6
:101660006A3239F418C0E33289F468816E3321F4A8
:1016700012C06332A9F402C06A3291F481E090E0B2
:101680008D939C93F9011182108211C0EA3241F4CA
:101690008881833229F41D921C9281E090E004C07D
:1016A00081E090E08D939C93F90191838083DF9199
:1016B000CF910895CF93DF93FC01DB01EA01019004
:1016C000F081E02DE130F10551F48D919C91892B51
:1016D00099F488818F5F888325EB33E00FC0EF2B6F
:1016E00059F48D919C91019739F4F90180818F5FB4
:1016F00080832CEB33E002C023EC33E0C901DF919F
:10170000CF910895FC01DB01E081EE2349F48AE2E8
:101710008C930E94D40788EC93E00E94C40708953C
:10172000E130B9F483E28C930E94D40780E090E02A
:1017300064E076E041E00E94940980E092E066E097
:1017400072E041E00E940B0980E094E066E074E002
:101750002CC08EE38C930E94D40780E096E064E076
:1017600076E041E00E940B0980E095E064E075E0DE
:1017700041E00E940B0982E096E060E00E94BA0915
:1017800082E095E060E00E94BA0982E094E061E0C6
:101790000E94EA0780E090E062E073E041E00E948E
:1017A0000B0984E090E062E073E041E00E940B09E5
:1017B0000895382FDB0120E013C0832F6E2F0E9485
:1017C000600C442321F4882311F4E13041F4805D5E
:1017D0008D9380536E2F0E94450C381B41E02F5F84
:1017E000E22FF0E0E653FC4FE081EE2331F71C924C
:1017F0000895882311F080E00895809103048823E0
:1018000019F480E090E0089590E080910404811143
:1018100091E081E09827892F0895882311F080E0D6
:10182000089580910304882319F080E090E00895E2
:1018300090E080910404882309F491E081E09827E6
:10184000892F0895882311F080E008958091030482
:101850000895882311F090E006C090E08091030481
:10186000882309F491E0892F0895809103048093DF
:10187000040489B11092030487FF03C081E08093C0
:101880000304089557985F980895002480FD060E7C
:10189000660F11F08695D1F7802D08955527002405
:1018A00080FF02C0060E571F660F771F6115710576
:1018B00021F096958795009799F7952F802D08959B
:1018C000991B79E004C0991F961708F0961B881F92
:1018D0007A95C9F780950895AA1BBB1B51E107C0F3
:1018E000AA1FBB1FA617B70710F0A61BB70B881FB0
:1018F000991F5A95A9F780959095BC01CD0108953F
:1019000097FB092E05260ED057FD04D014D00AD01F
:10191000001C38F450954095309521953F4F4F4F1E
:101920005F4F0895F6F790958095709561957F4F7C
:101930008F4F9F4F0895A1E21A2EAA1BBB1BFD01DA
:101940000DC0AA1FBB1FEE1FFF1FA217B307E4079E
:10195000F50720F0A21BB30BE40BF50B661F771FF6
:10196000881F991F1A9469F76095709580959095D6
:101970009B01AC01BD01CF010895FB01DC01415089
:10198000504048F001900D920020C9F701C01D920F
:0C19900041505040E0F70895F894FFCF5C
:10199C00524F434B20504150455220534953534FC3
:1019AC005253200047616D654F766572596F754CC7
:1019BC006F737400436F6E67726174756C617469D8
:1019CC006F6E73596F75576F6E54686547616D65AF
:1019DC00210057616974696E67466F724F70706F42
:1019EC006E656E7420004F70706F6E656E7453630D
:1019FC006F72654973202000596F757253636F7253
:101A0C00654973202000010507205F0500000000D8
:101A1C0000C6186380014A290000004A7DF5950232
:101A2C00C417471F016322223206261551930586DF
:101A3C000800000088082108028220848800805455
:101A4C0057090080904F0800000060880000800F4C
:101A5C0000000000008C0100222202002EE63AA3B6
:101A6C0003C4104288032E4244C4072E4207A3032A
:101A7C0088A9F411023F8407A3032E8617A3033F02
:101A8C00424408012E4617A3032E460FA303C01889
:101A9C00600C00C0186088008888200802007CF068
:101AAC00010082208888002E424400012E425BAB4C
:101ABC000344C51F63042FC617E3032E8610A2032D
:101ACC002FC618E3033F8417C2073F841742002E2A
:101ADC00861EA30731C61F63048E10428803104272
:101AEC0018A3033195515204218410C20771D71ADF
:101AFC00630471D61C63042EC618A3032FC61742A9
:101B0C00002EC65893052FC61763042E0607A30391
:101B1C009F1042080131C618A30331C618150131B4
:101B2C00C65AAB02312AA26204312A4208011F2292
:101B3C0022C207278410C20120088220000E2184B3
:101B4C0090034445000000000000C0078220000004
:101B5C00000038E8A30721B419E30300B810A2036E
:101B6C0010DA1CA30700B8F883034C8A238400C046
:101B7C00C7E8A10321B41963040418428803083090
:101B8C0084920121A4324A02861042880300AC5A86
:101B9C00630400B419630400B818A30300BCF84232
:101BAC000000D8EC210400B419420000B8E0E003B6
:101BBC00421C21240300C418B30500C418150100ED
:101BCC00C45AAB02004445540400C4E8A103007C91
:101BDC0044C4078810410802841042080182104452
:101BEC00880000888A00000158D000080100030614
:101BFC00080A0340008003100380032000400020EB
:101C0C0000100008000400020001038003400320C0
:101C1C000080031000000000000014000000000011
:101C2C0000000000000000000000000000000000A8
:101C3C000000000000000000000000000000000098
:101C4C00000000000057494E4E4552004C4F4F5378
:0E1C5C0045520044524157002A00640A01001C
:00000001FF
